:0400000084EF03F096
:1000080000C019F001C018F002C017F003C016F0C4
:1000180004C015F09EA606D082B003D0C9CF23F045
:100028000ADA9E9619C000F018C001F017C002F055
:0A00380016C003F015C004F011001B
:0C0042003A0E0D6E0D2EFED700001200CD
:10004E000B6A0A6A096A086A0E6A03340836045093
:10005E00085E0550D8A0053C095E0650D8A0063CA7
:10006E000A5E0750D8A0073C0B5EE86AD8A0010EC6
:10007E000E5E0336070E0C6E0334083609360A364A
:10008E000B360E36045003A012D0085E0550D8A0D1
:10009E00053C095E0650D8A0063C0A5E0750D8A063
:1000AE00073C0B5EE86AD8A0010E0E5E11D0082642
:1000BE000550D8B0053C09260650D8B0063C0A2695
:1000CE000750D8B0073C0B26E86AD8B0010E0E26B2
:1000DE0003360C2ED1D70234083609360A360B36C3
:1000EE000E36045003A012D0085E0550D8A0053C71
:1000FE00095E0650D8A0063C0A5E0750D8A0073C01
:10010E000B5EE86AD8A0010E0E5E11D008260550CF
:10011E00D8B0053C09260650D8B0063C0A26075032
:10012E00D8B0073C0B26E86AD8B0010E0E26023670
:10013E00070E0C6E0234083609360A360B360E36AA
:10014E00045002A012D0085E0550D8A0053C095EEE
:10015E000650D8A0063C0A5E0750D8A0073C0B5E9E
:10016E00E86AD8A0010E0E5E11D008260550D8B050
:10017E00053C09260650D8B0063C0A260750D8B0D2
:10018E00073C0B26E86AD8B0010E0E2602360C2E5E
:10019E00D1D70134083609360A360B360E360450DE
:1001AE0002A012D0085E0550D8A0053C095E06508C
:1001BE00D8A0063C0A5E0750D8A0073C0B5EE86A42
:1001CE00D8A0010E0E5E11D008260550D8B0053C01
:1001DE0009260650D8B0063C0A260750D8B0073C70
:1001EE000B26E86AD8B0010E0E260136070E0C6EED
:1001FE000134083609360A360B360E36045001A085
:10020E0012D0085E0550D8A0053C095E0650D8A055
:10021E00063C0A5E0750D8A0073C0B5EE86AD8A0E1
:10022E00010E0E5E11D008260550D8B0053C0926E9
:10023E000650D8B0063C0A260750D8B0073C0B260D
:10024E00E86AD8B0010E0E2601360C2ED1D7003436
:10025E00083609360A360B360E36045001A012D077
:10026E00085E0550D8A0053C095E0650D8A0063C95
:10027E000A5E0750D8A0073C0B5EE86AD8A0010EB4
:10028E000E5E11D008260550D8B0053C0926065042
:10029E00D8B0063C0A260750D8B0073C0B26E86AB1
:1002AE00D8B0010E0E260036070E0C6E003408363E
:1002BE0009360A360B360E36045000A012D0085EF0
:1002CE000550D8A0053C095E0650D8A0063C0A5E33
:1002DE000750D8A0073C0B5EE86AD8A0010E0E5E50
:1002EE0011D008260550D8B0053C09260650D8B0C6
:1002FE00063C0A260750D8B0073C0B26E86AD8B051
:10030E00010E0E2600360C2ED1D700B00ED00450A2
:10031E0008260550D8B0053C09260650D8B0063C34
:0C032E000A260750D8B0073C0B2612002E
:10033A00220E0C6E086A096A0A6A0B6A0C06D8B49D
:10034A001FD0D8900B320A320932083203320232F5
:10035A0001320032D8A0F2D70C06D8B409D0045022
:10036A0008260550092206500A2207500B22EAD70E
:10037A00045008260550092206500A2207500B226B
:02038A0012005F
:10038C00086A096A100E0C6E0134083609360450DE
:10039C00085E0550D8A0053C095ED8B007D00450C3
:1003AC0008260550D8B0053C0926D89000360136F1
:0603BC000C2EEAD712002E
:1003C200C30EC2163AC000F000360090003600900C
:1003D2000050C21235DEC282C2A201D0FDD7C4CF04
:0E03E20001F0006AC3500012000E011212005A
:1003F0003906390639C001F039060150000803E218
:1004000000000000F7D7000000000000000000001E
:020410001200D8
:10041200000E006E7D0E016E000E026E036E120063
:10042200C20E1D6E030E1E6E3A0E1F6E000E206E61
:0C043200C26A070EC012C08EC280120009
:10043E003CD023500B0A02E10A0E226E23500D0A05
:10044E0002E1140E226E23500A0A02E11E0E226EE3
:10045E0039D023C08AFFC96A010E1A6E226A32D0C1
:10046E0023C08CFFC96A010E1A6E226A2BD0000EB1
:10047E00235C15E32350040812E323C03AF09ADFFD
:10048E0000C002F001C003F003320232039E0332B9
:10049E000232039E02C0C9FF010E1A6E02D0010E77
:1004AE00C96E226A0FD0226A0DD02250000AC1E016
:1004BE0022500A0ACEE02250140AD2E022501E0A1E
:0604CE00D6E0F1D7120098
:1004D4000900F5CFE6FF0006FBE10106F9E1120091
:1004E40096DFE80E046E030E056E000E066E076EB0
:1004F40022DF00C035F001C036F002C037F003C07F
:1005040038F02DC004F02EC005F0000E066E076E04
:100514009CDD00C035F001C036F002C037F003C0E6
:1005240038F000C005F001C006F002C007F003C0B7
:1005340008F00832073206320532089E08320732C4
:1005440006320532089E05C000F006C001F007C05F
:1005540002F008C003F00332023201320032039E7B
:1005640000C031F001C032F052DF2FC004F030C0BF
:1005740005F0000E066E076EDEDE31C009F032C0F3
:100584000AF0000E0B6E0C6E030E086E09C004F028
:100594000AC005F00BC006F00CC007F0085007E0D5
:1005A40004360490053606360736FF0FF8D74DDDBE
:1005B40000C035F001C036F002C037F003C038F097
:1005C4000A0E046E000E056E31C000F032C001F058
:1005D400DBDE00C031F001C032F0000E015C02E14C
:1005E400030E005C01E241D01BC0E9FF1CC0EAFF1E
:1005F4003850000808E13750000805E1365000087B
:1006040002E1355000082FE22150EF1232520DE082
:10061400336A346A000E345C02E13250335C05E222
:10062400396AE4DE334A342AF5D731C039F0DEDEE4
:100634002850EF1632520DE0336A346A000E345CEF
:1006440002E13250335C05E2396AD0DE334A342A9F
:10065400F5D731C039F0CADE010E355E000E365AC8
:0C066400375A385AC5D72850EF1612003C
:10067000C69AFF0E296EFF0E2A6EFF0E2B6EFF0E1E
:100680002C6EFF0E246EFF0E256EFF0E266EFF0EE3
:10069000276E949A2D50040A02E1948601D0949614
:1006A0009488C66A2D50C6122F50C6122E50C712FB
:1006B0002F5205E03050000AD8B4C78C03D0305216
:0806C000D8A4C78CC68A120001
:1006C8002DC01BF02EC01CF02FC001F0010E006ED3
:1006D800015004E000360090FF0FFBD700C021F066
:1006E800001E00C028F0120E2D24E96E000E2E20E8
:1006F800EA6E0050EF16120EE95E0050EF16120077
:100708001A6A2F0E0F01386F396B3A6B3B6B606AB0
:1007180084DEFF0E926E936A956A9480820E2D6E27
:100728000F0E2E6E020E2F6ECBDF050E2D6E2E6A6B
:100738002F6A010E306E98DF9486D09E9D86F28EC9
:10074800F28C1A520AE0D00E2D6E070E2E6E320E63
:0E0758002F6E000E306EC2DE1A6AF3D7FFD786
:020000040030CA
:0D000100331F3CFFBF81FF0FC00FE00F4019
:00000001FF
