:04000000EEEF12F01D
:1000080000C016F001C015F0E1CF17F0E2CF18F0EC
:100018009EA67DD09E96C7A822D014D0010E416E10
:10002800000E426E1BD0020E416E000E426E16D0BC
:10003800030E416E000E426E11D0040E416E000E8A
:10004800426E0CD05750010AE9E05750020AEBE023
:100058005750030AEDE05750040AEFE058D0C9CFD3
:1000680001F0C7AA4CD05750010A20E1300EE16ECA
:10007800000EE26E4350E126000E43BEFF0EE22260
:1000880001C0E6FF432A300EE16E000EE26E4350D7
:10009800E126000E43BEFF0EE222E66A800E100A39
:1000A800006E800E4318005CD8A0436A5750020ABD
:1000B80020E1440EE16E000EE26E1950E126000EBA
:1000C80019BEFF0EE22201C0E6FF192A440EE16EB6
:1000D800000EE26E1950E126000E19BEFF0EE22254
:1000E800E66A800E100A006E800E1918005CD8A00F
:1000F800196A5750040A02E101C056F007D001C03E
:1001080057F00F0E0114576E5732579EC68816C007
:1001180000F015C001F017C0E1FF18C0E2FF1100A0
:080128000AAE029E000E120057
:100130000B840BAEA3EF00F0010E036E026A016A9E
:0A014000006A0A360232FF0E1200B8
:0E014A00026A016A006A086A036A000E120067
:100158000B820BAEB6EF00F0036802680168006816
:080168000A360232FF0E1200FC
:100170000CB0FAEF00F00CA2A0EF01F00E6A000E36
:10018000026411EF01F0F00E0214D8A4DCEF00F0CD
:10019000023A01380F0B02260138F00B016E0038CD
:1001A0000F0B01260038F00B006E08380F0B0026ED
:1001B0000838F00B086E0E84D89002BEF5EF00F000
:1001C00008360036013602360E2A02BEF5EF00F080
:1001D00008360036013602360E2A02BEF5EF00F070
:1001E00008360036013602360E2A0E50036496EFAA
:1001F00001F0035E0BBC08AE9BEF01F0D880800ECF
:1002000008640030000E002201220222D8A09BEFD9
:1002100001F0023201320032034AA0EF01F09BEFFD
:1002200001F001C002F000C001F008C000F0086A4F
:10023000000E0E86026448EF01F0F00E0214D8A4FE
:1002400030EF01F0023A01380F0B02260138F00BB3
:10025000016E00380F0B01260038F00B006E0E8483
:10026000D89002BEF5EF00F00036013602360E2AB5
:1002700002BEF5EF00F00036013602360E2A02BE4D
:10028000F5EF00F00036013602360E2AF5EF00F0E9
:1002900001C002F000C001F0006A000E0E960E8848
:1002A000026475EF01F0F00E0214D8A460EF01F0C3
:1002B000023A01380F0B02260138F00B016E0E8452
:1002C000D89002BEF5EF00F0013602360E2A02BECB
:1002D000F5EF00F0013602360E2A02BEF5EF00F00F
:1002E000013602360E2AF5EF00F001C002F0016A75
:1002F000000E0E860264A5EF01F0F00E0214D8A4E1
:1003000084EF01F0023A0E84D89002BEF5EF00F0BF
:1003100002360E2A02BEF5EF00F002360E2A02BEA9
:10032000F5EF00F002360E2AF5EF00F0010E0C6E2C
:10033000FFDEA8EF01F0020E0C6EF6DEA8EF01F072
:10034000040E0C6E09DFA8EF01F0080E0C6EFDDE46
:02035000120099
:100352000B800BAEB5EF01F0026A0AAEFF0E026E21
:0C036200016E006E0A360232FF0E12001F
:10036E00025006180E6E086A096A0B6A035007647B
:10037E00AAEF02F006500A6E068E028E03500B6E26
:10038E000750036E000E0B64FAEF01F00B50075E80
:10039E00D8B49BEF02F0070E076469EF02F0075E18
:1003AE0000C008F001C000F002C001F0026A074E62
:1003BE009BEF02F007643EEF02F0075E00C008F00C
:1003CE0001C000F0016A074E9BEF02F007641CEFBC
:1003DE0002F0075E00C008F0006A074E9BEF02F0C5
:1003EE00076403EF02F00AC002F005C001F004C07A
:1003FE0000F0086AC4EF03F0030E07640EEF02F07C
:10040E00075E08380F0B086E074E9BEF02F0D89070
:10041E000832074E9BEF02F0D8900832074E9BEF42
:10042E0002F0D89008329BEF02F0030E07642DEF16
:10043E0002F0075E08380F0B086E0038F00B082626
:10044E0000380F0B006E074E9BEF02F0D890003273
:10045E000832074E9BEF02F0D89000320832074E5A
:10046E009BEF02F0D890003208329BEF02F0030EA1
:10047E00076455EF02F0075E08380F0B086E003860
:10048E00F00B082600380F0B006E0138F00B00261B
:10049E0001380F0B016E074E9BEF02F0D890013220
:1004AE0000320832074E9BEF02F0D8900132003234
:1004BE000832074E9BEF02F0D8900132003208321C
:1004CE009BEF02F0030E076486EF02F0075E08381A
:1004DE000F0B086E0038F00B082600380F0B006E5D
:1004EE000138F00B002601380F0B016E0238F00BAD
:1004FE00012602380F0B026E074E9BEF02F0D890CA
:10050E000232013200320832074E9BEF02F0D890D1
:10051E000232013200320832074E9BEF02F0D890C1
:10052E000232013200320832096A000E0EAE8FEF2F
:10053E0003F0081E001E011E021E082A00220122C0
:10054E0002228FEF03F00750D8A4B0EF02F0C4EFF1
:10055E0003F0096A02C00AF0028E068E0750035C91
:10056E00076ED8B482EF03F0070E076450EF03F066
:10057E00075E0450096E0550046E0650056E066A3D
:10058E00074E82EF03F0070E076425EF03F0075EB8
:10059E000450096E0550046E056A074E82EF03F093
:1005AE00070E076403EF03F0075E0450096E046A3A
:1005BE00074E82EF03F0070E0764EAEF02F00AC05F
:1005CE0002F0C4EF03F0030E0764F5EF02F0075ECE
:1005DE0009380F0B096E074E82EF03F0D8900932DF
:1005EE00074E82EF03F0D8900932074E82EF03F0E8
:1005FE00D890093282EF03F0030E076414EF03F074
:10060E00075E09380F0B096E0438F00B0926043803
:10061E000F0B046E074E82EF03F0D89004320932AE
:10062E00074E82EF03F0D89004320932074E82EF64
:10063E0003F0D8900432093282EF03F0030E076400
:10064E003CEF03F0075E09380F0B096E0438F00B10
:10065E00092604380F0B046E0538F00B04260538F6
:10066E000F0B056E074E82EF03F0D8900532043261
:10067E000932074E82EF03F0D89005320432093268
:10068E00074E82EF03F0D89005320432093282EF22
:10069E0003F0030E07646DEF03F0075E09380F0BCE
:1006AE00096E0438F00B092604380F0B046E05385A
:1006BE00F00B042605380F0B056E0638F00B0526D9
:1006CE0006380F0B066E074E82EF03F0D8900632F7
:1006DE00053204320932074E82EF03F0D89006320B
:1006EE00053204320932074E82EF03F0D8900632FB
:1006FE00053204320932086A000E0EAE8FEF03F097
:10070E00091E041E051E061E092A042205220622A3
:10071E0009500826045000220550012206500222DC
:10072E000EBEA6EF03F0D8A0B5EF03F002320132F1
:10073E0000320832033EB5EF03F0BFEF03F0D8B03E
:10074E00BAEF03F0000E081E001E011E021E082A3C
:10075E000022012202220A7EBAEF03F0010E0C6E75
:10076E0000DDC6EF03F0020E0C6EFBDCC6EF03F0ED
:10077E00040E0C6EEADCC6EF03F0000E0C6E1200D7
:10078E000050086E0150006E0250016E0350026E52
:10079E00036A0B6A0C6A9E0E036E0A6A02AEE4EFDF
:1007AE0003F0081E001E011E021E082AD8B4002ADD
:1007BE00D8B4012AD8B4022A0A8E020E0C6ED1DCED
:0207CE00120017
:0607D000067ECDDD1200E3
:1007D6000B6A0C6A086A0350D8B46FEF04F002C0C3
:1007E6000AF0028E9E0E035E03AE5FEF04F0036C0A
:1007F600080E035CD8A02CEF04F0036E083600C088
:1008060008F001C000F002C001F0026A080E035CA5
:10081600D8A02CEF04F0036E083600C008F001C023
:1008260000F0016A080E035CD8A02CEF04F0036EFA
:10083600083600C008F0006A080E035CD8A02CEF4A
:1008460004F0036E0836086A0350D8A4D89038EF2F
:1008560004F00350D8B438EF04F0D89002320132D5
:1008660000320832032E30EF04F00BBC08A049EF2B
:1008760004F0D8A049EF04F0082AD8B4002AD8B466
:10088600012AD8B4022A02BE73EF04F00AAE6FEF53
:1008960004F0021E011E001E081E082AD8B4002AF3
:1008A600D8B4012AD8B4022A6FEF04F0026A016AAA
:1008B600006A086A6FEF04F00B800BAE79EF04F064
:1008C600026A0AAE79EF04F0026E016E006E086EDF
:1008D6000A36023279EF04F00C6A000E7AEF04F061
:1008E600010E0C6E000E32DD7AEF04F0FF0E0250A0
:1008F600036E0150026E0050016E0850006E120029
:100906000C6A0E6A0250D8A49CEF04F001C002F0F3
:1009160000C001F0006A0E860250D8A49CEF04F0D5
:1009260001C002F0016A0E960E880250D8B4AEEFEE
:1009360004F00E50035ED8A4D8A0B4EF04F0D8900B
:1009460002BEBAEF04F0003601360236032EA3EFDC
:1009560004F0B4EF04F0010E0C6EA5EC00F0BEEF4F
:1009660004F0020E0C6E98EC00F0BEEF04F0040EDC
:080976000C6E94EC00F012007D
:10097E00086A096A000E0762036444EF05F002502C
:10098E0006180A6E075003267E0ED8A0D5EF04F087
:10099E00035ED8B049EF05F0D9EF04F0035ED8A09E
:1009AE004EEF05F0028E068E02C00EF001C00BF067
:1009BE0000C00DF000500402F4CF0CF001500502FF
:1009CE00F4CF00F0F3CF08F00402F3500C26F450ED
:1009DE000822000E00220D500502F3500C26F45092
:1009EE000822000E002202500402F3500826F45092
:1009FE00002202500502016A000E0122F350002669
:100A0E00F45001220D500602F3500826F450002235
:100A1E00026A000E012202220B500602F35000263B
:100A2E00F4500122000E02220E500602F35001264F
:100A3E00F450022202BE2CEF05F0083600360136C5
:100A4E0002360306D8B44EEF05F03FEF05F0D8801E
:100A5E00800E08640030000E002201220222D8A06F
:100A6E003FEF05F0023201320032034A49EF05F042
:100A7E000AAE029E000E51EF05F0010EA5EC00F03D
:100A8E0051EF05F0020EACEC00F051EF05F0040E44
:060A9E0098EC00F01200CC
:080AA4000B6A0B86FF0E120025
:100AAC000A6A0350D8A40A800750D8A40A820A50B4
:100ABC00D8B4B9EF05F0030AD8B472EF05F00AB058
:100ACC006DEF05F006AEB7EF05F0B5EF05F002AE31
:100ADC00B5EF05F0B7EF05F00250800B0A6E029EE1
:100AEC000650800B069E0A18D8B483EF05F00A5006
:100AFC00D8B4B5EF05F0B7EF05F00750035CD8B4E8
:100B0C008DEF05F0D8A0A9EF05F0AFEF05F006507A
:100B1C00025CD8B497EF05F0D8A0A9EF05F0AFEFC1
:100B2C0005F00550015CD8B4A1EF05F0D8A0A9EFF1
:100B3C0005F0AFEF05F00450005CD8B4B9EF05F048
:100B4C00D8B0AFEF05F00A52D8B4B7EF05F0B5EF57
:100B5C0005F00A52D8B4B5EF05F0B7EF05F0D88020
:0E0B6C001200D8901200D880D8841200120017
:100B7A00800E046E000E056E030E0424E96E000E4C
:100B8A000520EA6E7E0EEE5C006E016A000E015AC6
:100B9A0084C0E1FF85C0E2FF00C0E6FF01C0E6FFB6
:100BAA00030E0424E16E000E0520E26E7E0EE66E50
:100BBA0080C000F081C001F082C002F083C003F05F
:020BCA00120017
:100BCC0087C000F088C001F0000E000188BFFF0E46
:100BDC00026E036E00360090013602360336003684
:100BEC00009001360236033684510024F66E85518E
:100BFC000120F76E86510220F86E0900F5CF89F0BE
:100C0C000900F5CF8AF00900F5CF8BF00900F5CF7C
:100C1C008CF08751881148E080C000F081C001F051
:100C2C0082C002F083C003F089C004F08AC005F0D2
:100C3C008BC006F08CC007F09CDE010E875F000EA7
:100C4C00885B87C004F088C005F0000E88BFFF0EDB
:100C5C00066E076E043604900536063607360436E3
:100C6C00049005360636073684510424F66E8551F9
:100C7C000520F76E86510620F86E0900F5CF04F0BA
:100C8C000900F5CF05F00900F5CF06F00900F5CF06
:100C9C0007F0B7EC01F000C089F001C08AF002C087
:100CAC008BF003C08CF0B5D789C000F08AC001F07E
:0A0CBC008BC002F08CC003F01200A0
:100CC60083C000F0016A026A036AFF0E0016000E76
:100CD600011600C088F001C089F07F0E005C026E2C
:100CE600000E0158036E02C088F003C089F0800E22
:100CF6000318006E800E005C02E1000E025C21E229
:100D0600046A056A066A076A80C000F081C001F0BD
:100D160082C002F083C003F0C6DE010ED8B0000E1A
:100D2600006E005209E0000E006E000E016E800E8D
:100D3600026E7F0E036E5AD0006A016A026A036A67
:100D460055D0000E006E00018951005C02E1885109
:100D5600180809E280C000F081C001F082C002F0EC
:100D660083C003F043D080C000F081C001F082C090
:100D760002F083C003F02CDD07DD00C084F001C063
:100D860085F002C086F003C087F000C004F001C001
:100D960005F002C006F003C007F080C000F081C075
:100DA60001F082C002F083C003F07DDE010ED8B0F0
:100DB600000E006E005212E0000E046E000E056E6C
:100DC600000E066E7F0E076E84C000F085C001F02F
:100DD60086C002F087C003F0F8DC08D084C000F0BB
:0E0DE60085C001F086C002F087C003F0120045
:100DF40003500718D8A40EEF07F002500618D8A421
:100E04000EEF07F001500518D8A40EEF07F00050BC
:0E0E14000418D8B4D8841200D894120012002A
:100E220000C008F00150006E016A026A036A0B6A90
:100E32000C6A016A026A036A960E036E0A6A00AEBF
:100E420029EF07F0081E001E082AD8B4002A0A8ECD
:100E520000C001F008C000F0086A026A53DD120007
:100E62000450000A12E10550000A0FE10650000A80
:100E72000CE10750000A09E1FF0E006EFF0E016E41
:100E82007F0E026EFF0E036EA7D0086A096A075032
:100E9200D8B4DCEF07F00350D8B4E0EF07F002500B
:100EA20006180A6E028E068E0E6A02C008F001C093
:100EB2000CF000C00DF004500D5E0550D8A0053CAA
:100EC2000C5E0650D8A0063C085E086A0C6A0D6AE1
:100ED200D8A073EF07F0D890023201320032083204
:100EE200010E0E6E0750035ED8A080EF07F07E0E53
:100EF2000E240326D8B0E5EF07F086EF07F07E0E4A
:100F02000E240326D8A0EAEF07F0180E0B6E0D365A
:100F12000C3608360036013602360E360450005EB4
:100F22000550D8A0053C015E0650D8A0063C025EE2
:100F320006340E120EA0A1EF07F00D80ACEF07F001
:100F4200045000260550D8B0053C01260650D8B002
:100F5200062802260D900B2E88EF07F0D2EF07F03D
:100F6200D8900036013602360E360450005E055027
:100F7200D8A0053C015E0650D8A0063C025E0634AD
:100F82000E10010B0D26D8B00C2AD8B4082AD8A40A
:100F9200D2EF07F008320C320D32032AD8B4E5EF53
:100FA20007F00AAE089E0850026E0C50016E0D50FA
:100FB200006EEDEF07F0010E74DDEDEF07F0020EAB
:100FC200A5EC00F0EDEF07F0040EACEC00F0EDEF55
:0A0FD20007F0080E98EC00F0120082
:100FDC00800E0001866F000E876F030E8625D96E7A
:100FEC00000E8721DA6EDE508425016E000E8521FD
:100FFC00026E01C084F002C085F0800E0218006EF3
:10100C00800E005C02E1000E015C05E2006A016AE0
:10101C00026A036A3ED0800E006E800E8519005C59
:10102C0002E18451FF0825E2046A056A066A076A30
:10103C0080C000F081C001F082C002F083C003F0D8
:10104C002FDD010ED8B0000E006E005209E0FF0E2D
:10105C00006EFF0E016EFF0E026EFF0E036E19D0B6
:10106C00FF0E006EFF0E016E7F0E026EFF0E036E02
:10107C0010D0030E8625E16E000E8721E26E84C02F
:10108C00E6FF80C000F081C001F082C002F083C096
:04109C0003F012004B
:1010A0000B6A0350D8B496EF08F002500A6E028E15
:1010B0008E0E035E03AE9AEF08F0036C080E035C1D
:1010C000D8A075EF08F0036E013602C001F0026A85
:1010D000080E035CD8A075EF08F0036E0136016AB4
:1010E0000350D8A4D8907FEF08F00350D8B47FEF16
:1010F00008F0D89002320132032E79EF08F00BBCD1
:1011000001A08CEF08F0D8A08CEF08F0012AD8B429
:10111000022A02BEA9EF08F00AAEAFEF08F0021EE5
:10112000011E012AD8B4022AAFEF08F0026A016A50
:10113000AFEF08F00B800BAEB3EF08F0026A0AAE17
:10114000B3EF08F0FF0E026E016E0A360232B3EF03
:1011500008F0010E0C6EA9EC01F0B5EF08F0000EDE
:101160000C6EB5EF08F0FF0E0C6E0150006E0250D1
:04117000016E1200FA
:10117400046A056A066A076A76C000F077C001F05F
:1011840078C002F079C003F033DE010ED8A4000E5B
:10119400006E005209E0000E006E000E016E000E9B
:1011A400026E7F0E036EF7D076C004F077C005F0B0
:1011B40078C006F079C007F0FC0E006ED40E016E04
:1011C400320E026E850E036E6FDC010ED8B0000E77
:1011D400006E005209E0FF0E006EFF0E016E7F0EDE
:1011E400026EFF0E036ED7D04F0E046EAC0E056E6A
:1011F400AE0E066E850E076E76C000F077C001F065
:1012040078C002F079C003F04FDC010ED8B0000EB4
:10121400006E005205E0006A016A026A036ABBD0EC
:10122400046A056A066A076A76C000F077C001F0AE
:1012340078C002F079C003F037DC010ED8B0000E9C
:10124400006E00C07CF0005202E00001787F76C09E
:1012540000F077C001F078C002F079C003F03B0ED3
:10126400046EAA0E056E380E066E7F0E076EBFEC76
:1012740004F000C076F001C077F002C078F003C03B
:1012840079F000C080F001C081F002C082F003C098
:1012940083F017DD03DF00C07AF001C07BF0BFDD0F
:1012A40000C004F001C005F002C006F003C007F05E
:1012B40076C000F077C001F078C002F079C003F086
:1012C400E8EC03F000C076F001C077F002C078F0DB
:1012D40003C079F000C080F001C081F002C082F048
:1012E40003C083F0200E0001846F270E856F000E6B
:1012F400866F090E876F000E886F66DC00C080F071
:1013040001C081F002C082F003C083F07AC084F08F
:101314007BC085F061DE00C076F001C077F002C0CA
:1013240078F003C079F07C532EE0FF0E046EFF0EBC
:10133400056E7F0E066EFF0E076E76C000F077C056
:1013440001F078C002F079C003F052DD010ED8A498
:10135400000E006E005205E0006A016A026A036A28
:101364001AD076C004F077C005F078C006F079C0D2
:1013740007F0000E006E000E016E000E026E7F0E6E
:10138400036E6DDD08D076C000F077C001F078C040
:0813940002F079C003F0120021
:10139C0076C004F077C005F078C006F079C007F08D
:1013AC00006A016A026A036A56EC05F0000ED8B0B6
:1013BC00010E006E005205E0006A016A026A036ABF
:1013CC006CD076C080F077C081F078C082F079C0A4
:1013DC0083F07A0E0001846F000E856FBDEC05F072
:1013EC00000E046E000E056E000E066E800E076E6B
:1013FC00BFEC04F0000E046E000E056E000E066EBF
:10140C007F0E076EE8EC03F000C076F001C077F0B9
:10141C0002C078F003C079F0010E7A5F000E7B5B9E
:10142C0000C080F001C081F002C082F003C083F0E4
:10143C00480E846F270E856F000E866F080E876F1F
:10144C00000E886FE6EC05F000C07CF001C07DF06A
:10145C0002C07EF003C07FF07CC076F07DC077F0D8
:10146C007EC078F07FC079F07AC000F07BC001F0CC
:10147C00D2DC180E046E720E056E310E066E7E0EE8
:10148C00076EBFEC04F07CC004F07DC005F07EC09C
:0C149C0006F07FC007F0B7EC01F0120072
:0C14A800020E0D6E0D2EFED7000012008B
:0A14B400850E0D6E0D2EFED71200FE
:1014BE003A0E0C6E230E0D6E0D2EFED70C2EFCD793
:0214CE0012000A
:1014D00000017607760776C001F076070150000814
:1014E00003E200000000F7D7000000000000000049
:0414F00000001200E6
:1014F400000E006E7D0E016E000E026E036E120071
:10150400086A096A100E0C6E013408360936045054
:10151400085E0550D8A0053C095ED8B007D0045039
:1015240008260550D8B0053C0926D8900036013667
:061534000C2EEAD71200A4
:10153A000B6A0A6A096A086A0E6A03340836045092
:10154A00085E0550D8A0053C095E0650D8A0063CA6
:10155A000A5E0750D8A0073C0B5EE86AD8A0010EC5
:10156A000E5E0336070E0C6E0334083609360A3649
:10157A000B360E36045003A012D0085E0550D8A0D0
:10158A00053C095E0650D8A0063C0A5E0750D8A062
:10159A00073C0B5EE86AD8A0010E0E5E11D0082641
:1015AA000550D8B0053C09260650D8B0063C0A2694
:1015BA000750D8B0073C0B26E86AD8B0010E0E26B1
:1015CA0003360C2ED1D70234083609360A360B36C2
:1015DA000E36045003A012D0085E0550D8A0053C70
:1015EA00095E0650D8A0063C0A5E0750D8A0073C00
:1015FA000B5EE86AD8A0010E0E5E11D008260550CF
:10160A00D8B0053C09260650D8B0063C0A26075031
:10161A00D8B0073C0B26E86AD8B0010E0E2602366F
:10162A00070E0C6E0234083609360A360B360E36A9
:10163A00045002A012D0085E0550D8A0053C095EED
:10164A000650D8A0063C0A5E0750D8A0073C0B5E9D
:10165A00E86AD8A0010E0E5E11D008260550D8B04F
:10166A00053C09260650D8B0063C0A260750D8B0D1
:10167A00073C0B26E86AD8B0010E0E2602360C2E5D
:10168A00D1D70134083609360A360B360E360450DD
:10169A0002A012D0085E0550D8A0053C095E06508B
:1016AA00D8A0063C0A5E0750D8A0073C0B5EE86A41
:1016BA00D8A0010E0E5E11D008260550D8B0053C00
:1016CA0009260650D8B0063C0A260750D8B0073C6F
:1016DA000B26E86AD8B0010E0E260136070E0C6EEC
:1016EA000134083609360A360B360E36045001A084
:1016FA0012D0085E0550D8A0053C095E0650D8A055
:10170A00063C0A5E0750D8A0073C0B5EE86AD8A0E0
:10171A00010E0E5E11D008260550D8B0053C0926E8
:10172A000650D8B0063C0A260750D8B0073C0B260C
:10173A00E86AD8B0010E0E2601360C2ED1D7003435
:10174A00083609360A360B360E36045001A012D076
:10175A00085E0550D8A0053C095E0650D8A0063C94
:10176A000A5E0750D8A0073C0B5EE86AD8A0010EB3
:10177A000E5E11D008260550D8B0053C0926065041
:10178A00D8B0063C0A260750D8B0073C0B26E86AB0
:10179A00D8B0010E0E260036070E0C6E003408363D
:1017AA0009360A360B360E36045000A012D0085EEF
:1017BA000550D8A0053C095E0650D8A0063C0A5E32
:1017CA000750D8A0073C0B5EE86AD8A0010E0E5E4F
:1017DA0011D008260550D8B0053C09260650D8B0C5
:1017EA00063C0A260750D8B0073C0B26E86AD8B050
:1017FA00010E0E2600360C2ED1D700B00ED00450A2
:10180A0008260550D8B0053C09260650D8B0063C33
:0C181A000A260750D8B0073C0B2612002D
:10182600220E0C6E086A096A0A6A0B6A0C06D8B49C
:101836001FD0D8900B320A320932083203320232F4
:1018460001320032D8A0F2D70C06D8B409D0045021
:1018560008260550092206500A2207500B22EAD70D
:10186600045008260550092206500A2207500B226A
:0218760012005E
:10187800000169BF02D08A9601D08A8669BD02D06C
:101888008A9401D08A8469BB02D08A9201D08A8264
:1018980069B902D08A9001D08A8055B002D08A886E
:1018A80001D08A988A8AFCDD8A9A69B702D08A961A
:1018B80001D08A8669B502D08A9401D08A8469B336
:1018C80002D08A9201D08A8269B102D08A9001D06E
:1018D8008A8055B002D08A8801D08A988A8AE0DD49
:0E18E8008A9A55A002D0E7DD01D0E0DD1200A3
:1018F60000C008F00B6A0C6A9E0E036E0A6A026A42
:0E190600016A006A020E0C6EB8EC00F01200CE
:101914000001756B046A056A066A076A6DC000F007
:101924006EC001F06FC002F070C003F0FAEC06F074
:10193400010ED8A4000E006E005209E0000E006EE5
:10194400000E016E000E026E7F0E036EA7D0046AB5
:10195400056A066A076A69C000F06AC001F06BC0D4
:1019640002F06CC003F0FAEC06F0010ED8A4000EED
:10197400006E005205E0006A016A026A036A8ED0B2
:10198400046A056A066A076A69C000F06AC001F061
:101994006BC002F06CC003F056EC05F0010ED8B039
:1019A400000E006E00522DE06DC000F06EC001F01C
:1019B4006FC002F070C003F0EBEC03F000C071F0F4
:1019C40001C072F002C073F003C074F0C7EC03F0FE
:1019D4006DC004F06EC005F06FC006F070C007F073
:1019E400FAEC06F0000ED8A4010E006E005205E0D9
:1019F400006A016A026A036A51D0010E7115756F9B
:101A04006B7F69C076F06AC077F06BC078F06CC009
:101A140079F0C2DC00C069F001C06AF002C06BF06A
:101A240003C06CF06DC004F06EC005F06FC006F02A
:101A340070C007F0BFEC04F000C069F001C06AF0A8
:101A440002C06BF003C06CF000C076F001C077F008
:101A540002C078F003C079F0BAEC08F000C069F075
:101A640001C06AF002C06BF003C06CF00001755352
:101A74000DE0000E6919006E000E6A19016E800EE9
:101A84006B19026E000E6C19036E08D069C000F069
:0E1A94006AC001F06BC002F06CC003F01200DB
:101AA20028DDE80E046E030E056E000E066E076E4C
:101AB200B9DE00C071F001C072F002C073F003C061
:101AC20074F069C004F06AC005F0000E066E076E7D
:101AD20033DD00C071F001C072F002C073F003C0C8
:101AE20074F000C005F001C006F002C007F003C0A8
:101AF20008F00832073206320532089E08320732F1
:101B020006320532089E05C000F006C001F007C08B
:101B120002F008C003F00332023201320032039EA7
:101B220000C06DF001C06EF0E4DC6BC004F06CC06C
:101B320005F0000E066E076E75DE6DC009F06EC010
:101B42000AF0000E0B6E0C6E030E086E09C004F054
:101B52000AC005F00BC006F00CC007F0085007E001
:101B620004360490053606360736FF0FF8D7E4DC54
:101B720000C071F001C072F002C073F003C074F0D3
:101B82000A0E046E000E056E6DC000F06EC001F00C
:101B9200B8DC00C06DF001C06EF0000E015C02E125
:101BA200030E005C01E242D058C0E9FF59C0EAFFCF
:101BB20000017451000808E17351000805E17251F7
:101BC200000802E1715100082FE25A50EF126E53E1
:101BD2000DE06F6B706B000E705D02E16E516F5D18
:101BE20005E2766B74DC6F4B702BF5D76DC076F027
:101BF2006EDC5B50EF166E530DE06F6B706B000E78
:101C0200705D02E16E516F5D05E2766B60DC6F4BD9
:101C1200702BF5D76DC076F05ADC010E715F000EA5
:0E1C2200725B735B745BC4D75B50EF161200ED
:101C300000016251080802E2080E626FD9D1000E5D
:101C4000696F000E6A6F000E6B6F800E6C6F62C062
:101C500000F051DE00C06DF001C06EF002C06FF008
:101C600003C070F057DECD0E046ECC0E056E020E72
:101C7000066E830E076EBFEC04F000C065F001C075
:101C800066F002C067F003C068F0E2D1000E696F31
:101C9000000E6A6F000E6B6F800E6C6F62C000F0FA
:101CA0002ADE00C06DF001C06EF002C06FF003C00C
:101CB00070F030DE5C0E046E8F0E056E0A0E066E3E
:101CC000830E076EBFEC04F000C065F001C066F043
:101CD00002C067F003C068F0BBD1000E696F000E50
:101CE0006A6F000E6B6F800E6C6F62C000F003DED7
:101CF00000C06DF001C06EF002C06FF003C070F064
:101D000009DECD0E046ECC0E056E120E066E830E2D
:101D1000076EBFEC04F000C065F001C066F002C0C1
:101D200067F003C068F094D1000E696F000E6A6F0F
:101D3000000E6B6F800E6C6F62C000F0DCDD00C0C7
:101D40006DF001C06EF002C06FF003C070F0E2DD14
:101D50009A0E046E990E056E1B0E066E830E076EAC
:101D6000BFEC04F000C065F001C066F002C067F08F
:101D700003C068F06DD1000E696F000E6A6F000E2F
:101D80006B6F800E6C6F62C000F0B5DD00C06DF04F
:101D900001C06EF002C06FF003C070F0BBDDCD0E6D
:101DA000046ECC0E056E240E066E830E076EBFEC1D
:101DB00004F000C065F001C066F002C067F003C027
:101DC00068F046D1000E696F000E6A6F000E6B6FEF
:101DD000800E6C6F62C000F08EDD00C06DF001C03F
:101DE0006EF002C06FF003C070F094DDD70E046E89
:101DF000A30E056E2E0E066E830E076EBFEC04F06A
:101E000000C065F001C066F002C067F003C068F072
:101E10001FD1000E696F000E6A6F000E6B6F800E8F
:101E20006C6F62C000F067DD00C06DF001C06EF045
:101E300002C06FF003C070F06DDDC30E046EF50ECE
:101E4000056E380E066E830E076EBFEC04F000C000
:101E500065F001C066F002C067F003C068F0F8D01A
:101E6000000E696F000E6A6F000E6B6F800E6C6F54
:101E700062C000F040DD00C06DF001C06EF002C035
:101E80006FF003C070F046DD000E046E000E056EAC
:101E9000440E066E830E076EBFEC04F000C065F0C2
:101EA00001C066F002C067F003C068F0D1D0000E38
:101EB000696F000E6A6F000E6B6F800E6C6F62C0F0
:101EC00000F019DD00C06DF001C06EF002C06FF0CF
:101ED00003C070F01FDD140E046EAE0E056E4F0EC3
:101EE000066E830E076EBFEC04F000C065F001C003
:101EF00066F002C067F003C068F0AAD0000E696FF8
:101F0000000E6A6F000E6B6F800E6C6F62C000F087
:101F1000F2DC00C06DF001C06EF002C06FF003C0D3
:101F200070F0F8DC000E046E000E056E5C0E066E9E
:101F3000830E076EBFEC04F000C065F001C066F0D0
:101F400002C067F003C068F083D0000E696F000E16
:101F50006A6F000E6B6F800E6C6F62C000F0CBDC9E
:101F600000C06DF001C06EF002C06FF003C070F0F1
:101F7000D1DCB80E046E1E0E056E690E066E830E61
:101F8000076EBFEC04F000C065F001C066F002C04F
:101F900067F003C068F05CD0000E696F000E6A6FD6
:101FA000000E6B6F800E6C6F62C000F0A4DC00C08E
:101FB0006DF001C06EF002C06FF003C070F0AADCDB
:101FC000C30E046EF50E056E760E066E830E076E5A
:101FD000BFEC04F000C065F001C066F002C067F01D
:101FE00003C068F035D0656B666B676B686B30D08B
:101FF0006151630AD8B423D66151430AD8B446D696
:102000006151640AD8B469D66151440AD8B48CD6F7
:102010006151650AD8B4AFD66151660AD8B4D2D638
:102020006151460AD8B4F5D66151670AD8B418D7B9
:102030006151470AD8B43BD76151610AD8B45ED721
:102040006151410AD8B481D76151620AA5E0CBD76A
:1020500065C000F066C001F067C002F068C003F020
:1020600050EC08F000C069F001C06AF063C06BF08A
:0820700064C06CF016DD1200E3
:0E207800559061C069F03CEC0CF055801200F0
:10208600939A939893909392939493968A9A8A9814
:102096008A968A948A928A905FEC0AF05FEC0AF03C
:1020A6005FEC0AF08A828A808A8A54EC0AF08A9A5D
:1020B6005FEC0AF08A8A54EC0AF08A9A5FEC0AF01E
:1020C6008A8A54EC0AF08A9A5FEC0AF08A908A8A25
:1020D60054EC0AF08A9A5FEC0AF08A8A54EC0AF009
:1020E6008A9A8A928A868A8A54EC0AF08A9A5FECDD
:1020F6000AF08A968A808A8A54EC0AF08A9A8A902A
:102106008A8A54EC0AF08A9A5FEC0AF08A8A54ECBE
:102116000AF08A9A8A808A8A54EC0AF08A9A5FECD4
:102126000AF08A908A8A54EC0AF08A9A8A868A8405
:102136008A828A808A8A54EC0AF08A9A5FEC0AF0CC
:0421460055801200AE
:10214A000900F5CFE6FF0006FBE10106F9E11200FE
:10215A005CC058F05DC059F05EC001F0010E006E1F
:10216A00015004E000360090FF0FFBD700C05AF080
:10217A00001E00C05BF0120E5C24E96E000E5D20AA
:10218A00EA6E0050EF16120EE95E0050EF161200CA
:10219A000FD0800E5C6E19D0C00E5C6E16D0940EF5
:1021AA005C6E13D0D40E5C6E10D0800E5C6E0DD0B7
:1021BA005C50010AEEE05C50020AEEE05C50030A51
:1021CA00EEE05C50040AEEE0F0D75D04006E5C506D
:1021DA00002600C05CF000C069F03CEC0CF05590A1
:1021EA00606B60515E24E96E000E5F20EA6EEE526B
:1021FA000BE060515E24E96E000E5F20EA6EEECFBE
:0C220A0061F035DF602BEDD7558012002D
:10221600B80E0001696F010E6A6F190E6B6F000E22
:102226006C6F3CDC940E0001696F020E6A6F190E2A
:0A2236006B6F000E6C6F32DC1200BB
:10224000650E0001616F050E626FDC0E636F000E9C
:10225000646FEEDC440E0001616F050E626FDC0EF0
:10226000636F000E646FE4DC650E0001616F050EA4
:10227000626FDC0E636F000E646FDADC440E0001E7
:10228000616F050E626FDC0E636F000E646FD0DC51
:10229000650E0001616F050E626FDC0E636F000E4C
:1022A000646FC6DC620E0001616F040E626FDC0EAB
:1022B000636F000E646FBCDC640E0001616F050E7D
:1022C000626FDC0E636F000E646FB2DC630E0001A0
:1022D000616F050E626FDC0E636F000E646FA8DC29
:1022E000610E0001616F040E626FB80E636F010E24
:1022F000646F9EDC610E0001616F030E626FDC0E85
:10230000636F000E646F94DC630E0001616F040E56
:10231000626FDC0E636F000E646F8ADC650E000175
:10232000616F040E626FDC0E636F000E646F80DC01
:10233000610E0001616F040E626FDC0E636F000EB0
:10234000646F76DC620E0001616F040E626FB80E7E
:10235000636F010E646F6CDC620E0001616F030E2F
:10236000626FDC0E636F000E646F62DC650E00014D
:10237000616F040E626FDC0E636F000E646F58DCD9
:10238000470E0001616F040E626FDC0E636F000E7A
:10239000646F4EDC620E0001616F040E626FDC0E32
:1023A000636F000E646F44DC630E0001616F050E05
:1023B000626FB80E636F010E646F3ADC610E00014C
:1023C000616F030E626FDC0E636F000E646F30DCB2
:1023D000650E0001616F040E626FDC0E636F000E0C
:1023E000646F26DC650E0001616F050E626FDC0E06
:1023F000636F000E646F1CDC440E0001616F050EFC
:10240000626FDC0E636F000E646F12DC650E0001FC
:10241000616F050E626FDC0E636F000E646F08DC87
:10242000440E0001616F050E626FDC0E636F000EDB
:10243000646F18EC0EF0650E0001616F050E626F9F
:10244000DC0E636F000E646F18EC0EF0620E00017C
:10245000616F040E626FDC0E636F000E646F18EC28
:102460000EF0640E0001616F050E626FDC0E636F8B
:10247000000E646F18EC0EF0630E0001616F050E24
:10248000626FDC0E636F000E646F18EC0EF0610E6D
:102490000001616F040E626FB80E636F010E646F0E
:1024A00018EC0EF0610E0001616F030E626FDC0E1E
:1024B000636F000E646F18EC0EF0630E0001616F25
:1024C000040E626FDC0E636F000E646F18EC0EF08A
:1024D000650E0001616F040E626FDC0E636F000E0B
:1024E000646F18EC0EF0610E0001616F040E626FF4
:1024F000DC0E636F000E646F18EC0EF0620E0001CC
:10250000616F040E626FB80E636F010E646F18EC9A
:102510000EF0620E0001616F030E626FDC0E636FDE
:10252000000E646F18EC0EF0650E0001616F040E72
:10253000626FDC0E636F000E646F18EC0EF0630EBA
:102540000001616F050E626FDC0E636F000E646F39
:1025500018EC0EF0620E0001616F040E626FDC0E6B
:10256000636F000E646F18EC0EF0610E0001616F76
:10257000040E626F940E636F020E646F18EC0EF01F
:02258000120047
:10258200630E0001616F040E626F140E636F000E22
:10259200646F18EC0EF0630E0001616F050E626F3E
:1025A200230E636F000E646F18EC0EF0630E0001D1
:1025B200616F060E626F140E636F000E646F18EC8B
:1025C2000EF0630E0001616F070E626F140E636FEF
:0A25D200000E646F18EC0EF012000A
:1025DC00B6EC13F00F01386B396B3A6B3B6B3C6B01
:1025EC008C6A956A9E969F86F28C9D86F28E948656
:1025FC009488F00ECA6EE00EC86E360EC66ECB8C8A
:10260C00C580840E5C6E0F0E5D6E010E5E6E9FDDDE
:10261C0034DD010E0001696F3CEC0CF00C0E696F9F
:10262C003CEC0CF0010E5C6E020E5D6E220E5E6ECA
:10263C00000E5F6EACDD020E5C6E050E5D6E1A0E4A
:10264C005E6E000E5F6EA3DD2DD00001010E696F72
:10265C003CEC0CF0010E5C6E010E5D6E300E5E6E8D
:10266C00000E5F6E94DD436A306A416A426ACDDDCA
:10267C0031D0020E5C6E010E5D6E440E5E6E000E6D
:10268C005F6E85DD446A196A416A426ABEDD22D0FA
:10269C00D1DD416A426A1ED056C08CFF6CDF416AA4
:1026AC00426A18D0000E421802E1010E4118CDE02A
:1026BC00000E421802E1020E4118DBE0000E421837
:1026CC0002E1030E4118E4E0000E421802E1040E90
:0826DC004118E2E0B9D7FFD775
:10276C0010EE19F03C0E006E010E016EE40EF66ECA
:0E277C00260EF76E000EF86EA5EC10F012009F
:0126E40000F5
:0826E5004578616D706C650021
:0E26ED005553422049324320636C69636B00F1
:1026FB0000000000000000000000000000000000CF
:01270B0000CD
:02270C000000CB
:01270E0000CA
:10270F0000000000000000000000000000000000BA
:01271F0000B9
:102720000000007F1872317EF0FD757C4758637A97
:1027300058951D7882C42E75A8782172EF93006F8A
:08274000A092276B46561568B4
:10274800FFE65B5DC4FF7F7E80EFFF7D90E1297D22
:10275800EC82F67C82AD2B7C0E3CC37B87D1137A4E
:042768004178D3776A
:020000040030CA
:0D000100331F3CFFBF81FF0FC00FE00F4019
:00000001FF
